:020000040800F2
:10000000780500204501000847120008DF110008AC
:1000100045120008B1010008A71300080000000005
:100020000000000000000000000000004B1200086B
:100030004F02000800000000491200084D1200089D
:100040005F0100085F0100085F0100085F01000810
:100050005F0100085F0100085F0100085F01000800
:100060005F0100085F0100085F0100085F010008F0
:100070005F0100085F0100085F0100085F010008E0
:100080005F0100085F0100085F0100085F010008D0
:100090005F0100085F0100085F0100085F010008C0
:1000A0005F0100085F0100085F0100085F010008B0
:1000B0005F0100085F0100085F0100085F010008A0
:1000C0005F0100085F0100085F0100085F01000890
:1000D0005F0100085F0100085F0100085F01000880
:1000E0005F0100085F0100085F0100085F01000870
:1000F0005F0100085F0100085F0100085F01000860
:100100005F0100085F0100085F0100085F0100084F
:100110005F0100085F0100085F0100085F0100083F
:100120005F0100085F010008190200085F01000874
:10013000DFF80CD000F02AF800480047E913000867
:10014000780500200648804706480047FEE7FEE79E
:10015000FEE7FEE7FEE7FEE7FEE7FEE7FEE7FEE777
:10016000AF12000831010008D2B201E000F8012B03
:10017000491EFBD270470022F6E710B513460A4627
:1001800004461946FFF7F0FF204610BD064C074D08
:1001900006E0E06840F0010394E807009847103457
:1001A000AC42F6D3FFF7C8FFAC140008CC1400082B
:1001B000FEE710B5446A204600F076F80120207171
:1001C00010BD10B5446A204600F044F801202071AB
:1001D00010BD10B5446A206940F00400206120463B
:1001E00000F064F80120207110BD10B5446A206948
:1001F00040F004002061204600F02EF8012020711C
:1002000010BD10B5406A00F050F810BD10B5406A3E
:1002100000F021F810BD0000014800F021B90000F5
:100220003401002030B590F840500124AC40C56B3B
:100230006C60046863604368102B036803D09960A6
:100240000068C26030BD9A600068C16030BD704710
:1002500072B6FEE770477047704770B54379012B5F
:1002600020D001254571022303710668346802F02D
:10027000100340F6FE729A409443D1E900210A43EC
:100280009A402243326002681468C02199408C432E
:100290001460026813688B4313600571002141717B
:1002A000084670BD022070BD70477047704770B53A
:1002B000040003D02079002510B105E0012070BDB5
:1002C0006571204600F008F80220207125610120A8
:1002D0002071002070BD0000F0B585B000260546F5
:1002E000009601960296039600681A4988422ED11C
:1002F0001949C86940F00050C861C86900F0005051
:100300000490886940F0040088618869102700F033
:10031000040004900320CDE9007069460F4800F006
:1003200039FA104C0E48C4E900078020C4E9026085
:1003300040002061800060612020C4E9060620465C
:1003400000F0B2F908B1FFF783FFAC60656205B059
:10035000F0BD0000007400400010024000080140A1
:1003600030040240340100202DE9F04104460D46DE
:100370001746617900220698012920D0012666716E
:1003800002212171F5B1D4F80CC02F49CCF8281006
:10039000D4F80CC02D49CCF82C10D4F80CC02C4942
:1003A000CCF830102168D1F800C04CF0805CC1F866
:1003B00000C068B304282ED0082831D12EE00220D6
:1003C000BDE8F081D4F808C02249CCF82810D4F850
:1003D00008C02149CCF82C10D4F808C01F49CCF82B
:1003E00030102168D1F800C04CF4805CC1F800C026
:1003F00020B1042805D0082808D105E02268083279
:1004000004E022680C3201E022681032A06808E0A3
:100410002268143204E02268183201E022681C329B
:10042000E068394600F07EF90021617120B1216950
:1004300041F004012161C3E721680A6805F0100357
:100440009E4032430A60BBE7C30100080D0200086A
:10045000EB010008B301000803020008D301000803
:100460002DE9F05FC16B0A6801680B68046C4FF0FE
:10047000040808FA04F8844D844E854FDFF814C24E
:10048000DFF81492DFF814A2DFF814B2DFF814E2F8
:1004900018EA020F65D05FEA437862D50A689206CF
:1004A00003D40A6822F004020A60DFF8F0814FF4F6
:1004B0008062016808F1140813011402414524D92F
:1004C000A9420DD0B1420FD0B9421AD0614515D022
:1004D000494515D0514501D1120312E0594501D1CA
:1004E00004220EE0714501D140220AE06D4D143521
:1004F000A94206D06B4A2832914201D11A4600E047
:1005000022466749091F0A6029E0A94213D0B14277
:1005100015D0B94220D061451BD049451BD051456B
:1005200002D14FF4800217E0414502D14FF08062C2
:1005300012E0594501D104220EE0714501D140225B
:100540000AE0584D1435A94206D0564A2832914245
:1005500001D11A4600E022464B4908394A60C16A77
:1005600071E04FF0020808FA04F818EA020F70D0A0
:100570005FEA83786DD50A68920606D40A6822F08D
:100580000A020A60012180F82110DFF810814FF47F
:100590000072016808F1140813011402414524D9BE
:1005A000A9420DD0B1420FD0B9421AD0614515D041
:1005B000494515D0514501D1120312E0594501D1E9
:1005C00002220EE0714501D120220AE0354D14359A
:1005D000A94206D0334A2832914201D11A4600E09E
:1005E00022462F49091F0A6029E0A94213D0B142CF
:1005F00015D0B94220D061451BD049451BD051458B
:1006000002D14FF4001217E0414502D14FF00072C1
:1006100012E0594501D102220EE0714501D120229C
:100620000AE0204D1435A94206D01E4A28329142D4
:1006300001D11A4600E02246134908394A600021D8
:1006400080F82010816A00291CD0BDE8F05F0847BF
:10065000FFE70825A540154214D01A0712D50A68ED
:1006600022F00E020A6090F84020C36B012101FACB
:1006700002F25A60816380F82110002180F8201076
:10068000016BE0E7BDE8F09F080002401C0002405B
:100690003000024044000240580002406C0002401A
:1006A000080402401C04024030B560B11A4B0268D5
:1006B00014219A4209D2194B1344B3FBF1F189007A
:1006C000016417490AE0012030BD134B5B4213441B
:1006D000B3FBF1F1890001640F490839C1630221BC
:1006E00080F82110136843F6F0718B43F0E9011490
:1006F0002143D0E902452C43214304692143446945
:10070000214384692143194311600021416301227F
:1007100042770177084630BD08040240F8FFFDBF6C
:100720000000024070B5044690F820000025012822
:100730000CD0012084F8200094F821600020012EC4
:1007400006D084F820000225284670BD022070BD26
:10075000022684F82160A0632068066826F001065E
:1007600006602046FFF75EFDE06A00282068016809
:1007700002D041F00E0106E021F004010160206882
:10078000016841F00A0101602068016841F001013F
:100790000160D9E72DE9F84FDFF8C891002409F18D
:1007A000040A0AF1040B23460F270BF1040ED1E0D3
:1007B0000125A54006EA0502AA4276D1DFF8A8C1C4
:1007C0004E68A6EB0C0866452BD00DDC032E34D00A
:1007D00005DC36B3012E19D0022E2FD11BE0112ECD
:1007E00016D0122E2AD119E0B8F5881F19D006DCD0
:1007F000B8F5803F15D0B8F5801F1FD111E0B8F5CE
:10080000001F0ED0B8F5041F18D10AE0CB6815E020
:10081000CB681B1D12E0CB6808330FE0CB680C33AC
:100820000CE08B682BB1012B4FF0080303D045611E
:1008300004E0042302E0056100E00023FF2A01D860
:10084000064601E000F104064FEA840501D9A5F14E
:100850002005D6F8008007FA05FC28EA0C0803FA00
:1008600005F548EA0508C6F800804D68ED0070D52A
:100870003E4DAE6946F00106AE61AD6924F0030657
:1008800005F0010500953A4D06EB050CDCF8085023
:10089000A607360F07FA06F825EA0805DFF8D48020
:1008A000404503D14FF0000825E052E0DFF8C88052
:1008B000404502D14FF001081DE0DFF8C0804045FF
:1008C00002D14FF0020816E0DFF8B480404502D1B3
:1008D0004FF003080FE0DFF8AC80404502D14FF045
:1008E000040808E0DFF8A080404502D14FF0050879
:1008F00001E04FF0060808FA06F848EA0508CCF8C7
:1009000008804D68D9F80060ED034D4601D51643C7
:1009100000E096432E604D68DAF80060AD0355465E
:1009200001D5164300E096432E604D68DBF8006069
:10093000ED025D4601D5164300E096432E604D68FA
:10094000DEF80060AD02754601D5164300E096431F
:100950002E60641C0A681646E2407FF429AFBDE8A9
:10096000F88F000000040140000011100010024048
:100970000000014000080140000C0140001001404F
:100980000014014000180140001C0140014880682B
:1009900070470000C80000200248816802781144B6
:1009A00081607047C8000020074810B5016841F019
:1009B00010010160032000F075F8002000F006F837
:1009C00000F024F8002010BD0020024070B50D4D4D
:1009D00004464FF47A712878B1FBF0F00A490968AF
:1009E000B1FBF0F000F0CCFA48B9102C07D200228D
:1009F0002146501E00F036F800206C6070BD0120CA
:100A000070BD0000C8000020D40000200C4808B5CC
:100A1000816941F001018161816901F00101009169
:100A2000C16941F08051C161C06900F080500090FF
:100A30000448416821F0E06141F08061416008BDF7
:100A40000010024000000140002809DB00F01F02F6
:100A5000012191404009800000F1E020C0F8001120
:100A600070470000F0B40E4B1B680C46C3F3022322
:100A7000C3F10705042D00D90425191D072901D24A
:100A8000002300E0DB1E012606FA05F1491E214085
:100A900099409E40761E16403143F0BC00F084BC65
:100AA0000CED00E0064900F0070208684FF6FF036E
:100AB000184040EA0220034A1043086070470000D3
:100AC0000CED00E00000FA052DE9F0470F460500A7
:100AD00061D0434E306800F00700B84209D2306858
:100AE00020F0070038433060306800F00700B8425B
:100AF00051D128683B4C810712D5400703D5606867
:100B000040F4E06060602878000703D5606840F436
:100B1000605060606068A96820F0F0000843606081
:100B20002878C00728D06868012810D021680228DA
:100B300010D0890700292EDA616821F003010143F2
:100B40006160FFF723FF804641F288390DE021689C
:100B50008903EFE78901EDE7FFF718FFA0EB080134
:100B6000494502D90320BDE8F0876068696800F054
:100B70000C00B0EB810FEFD1306800F00700B842F5
:100B80000BD9306820F0070038433060306800F03F
:100B90000700B84201D00120E5E72878400705D5D5
:100BA0006068E96820F4E060084360602878000726
:100BB00006D56068296920F4605040EAC100606091
:100BC00000F018F86168084AC1F30311515CC8408D
:100BD0000649086006480068FFF7F8FE0020C2E7F3
:100BE00000200240001002409C140008D4000020A5
:100BF000CC00002012A185B00FC98DE80F0014A011
:100C0000144A006804905168134801F00C03042B47
:100C100010D0082B0ED1C1F38343C9031DF8030084
:100C20000AD5516804AAC1F34041515C0A4A5043B5
:100C3000B0FBF1F005B0704708494843FAE70000FF
:100C400002030405060708090A0B0C0D0E0F10100D
:100C5000010200000010024000127A0000093D006D
:100C60002DE9F84F040070D02078C04DC00749D05E
:100C70006868C0F38100012807D06868C0F381006C
:100C8000022809D16868C00306D52868800339D5D1
:100C900060680028E7D035E06068B0F5803F0BD091
:100CA00010B1B0F5A02F11D0286820F48030286052
:100CB000286820F4802002E0286840F48030286012
:100CC000606890B1FFF762FE06460AE0286840F4CB
:100CD00080202860F0E700BFFFF758FE801B6428E3
:100CE00073D828688003F7D50CE0FFF74FFE06465F
:100CF00005E000BFFFF74AFE801B6428F0D8286893
:100D00008003F7D420789A4E80074FF001094FF006
:100D1000000839D5686810F00C0F07D06868C0F378
:100D20008100022809D16868C00306D428688007BA
:100D300014D52069012808D110E02069B0B1C6F8A7
:100D40000090FFF723FE074605E00AE1FFF71EFECD
:100D5000C01B0228C4D828688007F7D528686169B5
:100D600020F0F80040EAC10028600DE0C6F80080DD
:100D7000FFF70CFE074604E0FFF708FEC01B022841
:100D800023D828688007F7D4207800072CD5794825
:100D9000A169D9B1C0F80090FFF7F8FD074604E05B
:100DA000FFF7F4FDC01B02280FD8686A8007F7D54B
:100DB00071484FF4FA510068B0FBF1F0009000BFA9
:100DC0000098411E0091FAD20EE080E0C0F8008049
:100DD000FFF7DCFD074604E0FFF7D8FDC01B022843
:100DE00075D8686A8007F7D42078400760D5E8692D
:100DF0000027C00008D4E86940F08050E861E86945
:100E0000012700F0805000905C480168C90513D4A8
:100E10000168834641F480710160FFF7B7FD8246A7
:100E200006E000BFFFF7B2FDA0EB0A0064284ED831
:100E3000DBF80000C005F5D5E06801280AD008B14C
:100E4000052813D0286A20F001002862286A20F0C3
:100E5000040002E0286A40F001002862E06841F2E4
:100E6000883B98B1FFF792FD82460BE0286A40F07C
:100E700004002862EEE700BFFFF788FDA0EB0A013F
:100E800059455AD8286A8007F6D50CE0FFF77EFD51
:100E9000824605E0FFF77AFDA0EB0A0159454CD8E0
:100EA000286A8007F6D41FB1E86920F08050E86115
:100EB000E06988B36968C1F38101022944D002283E
:100EC000C6F8608004D0FFF761FD044638E034E0E6
:100ED000FFF75CFD074604E0FFF758FDC01B022842
:100EE0002BD828688001F7D4206AB0F5803F05D15F
:100EF0006868A16820F4003008436860D4E90801FC
:100F00000843696821F4741108436860C6F860906A
:100F1000FFF73CFD044606E025E000BFFFF736FD85
:100F2000001B022809D828688001F7D51BE000BF04
:100F3000FFF72CFD001B022802D90320BDE8F88F23
:100F400028688001F4D40EE00128F7D06868226A8E
:100F500000F48031914204D1616A00F4701088423B
:100F600001D00120EAE70020E8E70000001002407D
:100F70000000424280044242D40000200070004041
:100F800010B5401EB0F1807F01D3012010BD4FF09D
:100F9000E02460610F21601700F006FA0020A061D4
:100FA00007202061002010BD70B590F83C20012A78
:100FB0002CD0012480F83C40022280F83D200368B8
:100FC0005A689D6822F070060A6832435A60104BD6
:100FD00002689A420ED00F4B9A420BD0B2F1804F6A
:100FE00008D00D4B9A4205D00C4B9A4202D00C4BC4
:100FF0009A4204D1496825F080031943916080F832
:101000003D40002180F83C10084670BD022070BDB4
:10101000002C014000340140000400400008004062
:10102000000C004010B5040003D094F83D0010B14E
:1010300007E0012010BD002084F83C00204600F0AD
:101040001FF8022084F83D00211D206800F030F9CF
:10105000012084F8460084F83E0084F83F0084F8BC
:10106000400084F8410084F8420084F8430084F88A
:10107000440084F8450084F83D00002010BD0000C5
:1010800008B50068B0F1804F08D10548C16941F04A
:101090000101C161C06900F00100009008BD0000BD
:1010A0000010024090F83D10012901D00120704746
:1010B000022180F83D1000680E4988420ED00E498A
:1010C00088420BD0B0F1804F08D00C49884205D03F
:1010D0000B49884202D00B49884204D1816801F053
:1010E0000701062903D0016841F0010101600020D9
:1010F00070470000002C0140003401400004004013
:1011000000080040000C004070B5044690F83C0018
:10111000012817D0012584F83C50022084F83D00B6
:101120002068826822F0770222F47F428260086899
:10113000502830D00DDC20284DD005DC98B3102885
:101140003BD148E0022070BD302844D0402834D143
:1011500039E0602828D0702806D0B0F5805F2CD008
:10116000B0F5005F29D10AE0CB68D1E90121206800
:1011700000F0E4F82068816841F0770109E0CB686D
:10118000D1E90121206800F0D9F82068816841F494
:101190008041816011E0CA684968206800F0E0F889
:1011A0005021206807E016E0CA684968206800F00E
:1011B000E8F86021206800F0CBF884F83D5000206A
:1011C00084F83C0070BDCA684968206800F0C8F81F
:1011D00040212068EFE7226801461046EBE7FEE772
:1011E00010B586B00024164800940194029403942C
:1011F00004944FF080410594C0E900141321C0E924
:10120000024104618461FFF70DFF08B172B6FEE789
:101210004FF48050009069460948FFF775FF08B108
:1012200072B6FEE72020CDE9040404A90448FFF7C4
:10123000BBFE002801D072B6FEE706B010BD00006C
:10124000EC000020FEE7FEE770477047FFF7A4BB05
:1012500030B58FB028216846FEF78DFF14210AA80B
:10126000FEF789FF01210804CDE900100024029453
:1012700002250491CDE907504FF4E010099068462B
:10128000FFF7EEFC08B172B6FEE70F20CDE90A05C4
:101290004FF48060CDE90C4002210AA80E94FFF7BC
:1012A00013FC002801D072B6FEE70FB030BD7047C6
:1012B000F0B502681C4B1D4D1D4E1E4F1E4C4FF0CD
:1012C000804C984209D0A04207D0604505D0A84282
:1012D00003D0B04201D0B84204D122F0700E4A6867
:1012E00042EA0E02984209D0A04207D0604505D0DC
:1012F000A84203D0B04201D0B84203D122F44075D5
:10130000CA682A434D6922F080022A4302608A6833
:10131000C2620A688262984201D0A04201D1096982
:10132000016301214161F0BD002C01400004004037
:1013300000080040000C00400034014010B58468F3
:1013400042EA032224F47F440A432243826010BD10
:10135000826822F070020A4342F007018160704700
:1013600010B5036A046A24F001040462846924F05D
:10137000F00444EA021423F00A020A438461026280
:1013800010BD10B5036A23F0100303628369046A79
:1013900023F4704343EA023224F0A00343EA01112C
:1013A0008261016210BDFEE70907090E002804DB17
:1013B00000F1E02080F80014704700F00F0000F109
:1013C000E02080F8141D704702E008C8121F08C111
:1013D000002AFAD170477047002001E001C1121FB6
:1013E000002AFBD1704700001CB5FFF7DDFAFFF7BC
:1013F0002FFF2548816941F004018161816901F075
:1014000004010091416941F00201416140690022FB
:1014100000F00200009011463A20FFF723FB3A202B
:10142000FFF712FB00251A4900951848019508603E
:101430000846FEF73CFF08B172B6FEE72420009094
:1014400002200190002269461148FEF706FF08B10C
:1014500072B6FEE7FFF7C4FE0D4842F21074143076
:10146000FFF720FE64230B4A002109480095FEF790
:101470007BFF6420444308495FEA0072B1FBF4F04B
:10148000401E80B2D062F9E70010024000740040B4
:10149000D80000200000002000A24A040000000044
:1014A000000000000102030406070809CC1400082C
:1014B00000000020D8000000C8130008A415000890
:1014C000D8000020A0040000D8130008DC062B0779
:1014D0007907C70714085F08A908F10837097B09CD
:1014E000BC09FA09340A6C0A9F0ACF0AFB0A220BCC
:1014F000450B630B7D0B920BA20BAD0BB40BB50B25
:10150000B10BA80B9B0B880B710B550B340B0F0BFE
:10151000E50AB80A860A500A170ADB099C09590924
:101520001509CD0884083A08ED07A00752070307FC
:10153000B40666061806CA057E053305EA04A30448
:101540005E041C04DD03A003670332030003D20220
:10155000A90284026302470230021D020F02070241
:10156000030204020A02150226023B02540273021D
:101570009602BD02E90218034C038303BE03FC0379
:101580003D048004C6040F055905A405F1053F0676
:101590008D06DC06010000001000000000000000C5
:0415A0000024F4002F
:0400000508000131BD
:00000001FF
